{
  "contractName": "ProductPayment",
  "abi": [
    {
      "constant": true,
      "inputs": [],
      "name": "transactionCount",
      "outputs": [
        {
          "internalType": "uint256",
          "name": "",
          "type": "uint256"
        }
      ],
      "payable": false,
      "stateMutability": "view",
      "type": "function"
    },
    {
      "constant": true,
      "inputs": [
        {
          "internalType": "uint256",
          "name": "",
          "type": "uint256"
        }
      ],
      "name": "transactions",
      "outputs": [
        {
          "internalType": "uint256",
          "name": "transactionID",
          "type": "uint256"
        },
        {
          "internalType": "uint256",
          "name": "productID",
          "type": "uint256"
        },
        {
          "internalType": "uint256",
          "name": "price",
          "type": "uint256"
        },
        {
          "internalType": "bool",
          "name": "completed",
          "type": "bool"
        }
      ],
      "payable": false,
      "stateMutability": "view",
      "type": "function"
    },
    {
      "constant": false,
      "inputs": [
        {
          "internalType": "uint256",
          "name": "_productID",
          "type": "uint256"
        },
        {
          "internalType": "uint256",
          "name": "_price",
          "type": "uint256"
        }
      ],
      "name": "createTransaction",
      "outputs": [],
      "payable": false,
      "stateMutability": "nonpayable",
      "type": "function"
    }
  ],
  "bytecode": "0x60806040526000805534801561001457600080fd5b5061018f806100246000396000f3fe608060405234801561001057600080fd5b50600436106100415760003560e01c806366b3bc77146100465780639ace38c21461006b578063b77bf600146100b0575b600080fd5b6100696004803603604081101561005c57600080fd5b50803590602001356100ca565b005b6100886004803603602081101561008157600080fd5b5035610129565b6040805194855260208501939093528383019190915215156060830152519081900360800190f35b6100b8610154565b60408051918252519081900360200190f35b600080546001908101808355604080516080810182528281526020808201978852818301968752606082018681529386528490529320925183559351908201559051600282015590516003909101805460ff1916911515919091179055565b6001602081905260009182526040909120805491810154600282015460039092015490919060ff1684565b6000548156fea265627a7a72315820d1d8d3f92e1db68a9164d9b3ee063f6cf72c90db38a1eb7672775d17aefe0d3a64736f6c63430005100032",
  "source": "// SPDX-License-Identifier: MIT\npragma solidity >=0.4.22 <0.9.0;\n\ncontract ProductPayment {\n  uint public transactionCount = 0;\n  \n\n  struct Transaction{\n    uint transactionID;\n    uint productID;\n    uint price;\n    bool completed;\n  }\n\n  mapping(uint => Transaction) public transactions;\n\n  function createTransaction(uint  _productID,uint  _price) public{\n    transactionCount++;\n    transactions[transactionCount] = Transaction(transactionCount,_productID,_price,false);\n  }\n}\n",
  "sourcePath": "C:\\Users\\geral\\e-commerce\\contracts\\ProductPayment.sol",
  "compiler": {
    "name": "solc",
    "version": "0.5.16+commit.9c3226ce.Emscripten.clang"
  },
  "schemaVersion": "3.4.9",
  "updatedAt": "2022-08-23T05:46:28.884Z",
  "networkType": "ethereum",
  "devdoc": {
    "methods": {}
  },
  "userdoc": {
    "methods": {}
  }
}